{
    "contractName": "Bet",
    "abi": [
        {
            "inputs": [
                {
                    "internalType": "address",
                    "name": "owner",
                    "type": "address"
                }
            ],
            "name": "OwnableInvalidOwner",
            "type": "error"
        },
        {
            "inputs": [
                {
                    "internalType": "address",
                    "name": "account",
                    "type": "address"
                }
            ],
            "name": "OwnableUnauthorizedAccount",
            "type": "error"
        },
        {
            "anonymous": false,
            "inputs": [
                {
                    "indexed": false,
                    "internalType": "uint256",
                    "name": "id",
                    "type": "uint256"
                },
                {
                    "indexed": true,
                    "internalType": "address",
                    "name": "user",
                    "type": "address"
                },
                {
                    "indexed": false,
                    "internalType": "uint256",
                    "name": "amount",
                    "type": "uint256"
                },
                {
                    "indexed": false,
                    "internalType": "bool",
                    "name": "betOnYes",
                    "type": "bool"
                }
            ],
            "name": "BetPlaced",
            "type": "event"
        },
        {
            "anonymous": false,
            "inputs": [
                {
                    "indexed": true,
                    "internalType": "address",
                    "name": "previousOwner",
                    "type": "address"
                },
                {
                    "indexed": true,
                    "internalType": "address",
                    "name": "newOwner",
                    "type": "address"
                }
            ],
            "name": "OwnershipTransferred",
            "type": "event"
        },
        {
            "anonymous": false,
            "inputs": [
                {
                    "indexed": false,
                    "internalType": "uint256",
                    "name": "id",
                    "type": "uint256"
                },
                {
                    "indexed": false,
                    "internalType": "string",
                    "name": "description",
                    "type": "string"
                },
                {
                    "indexed": false,
                    "internalType": "uint256",
                    "name": "endTime",
                    "type": "uint256"
                }
            ],
            "name": "PredictionCreated",
            "type": "event"
        },
        {
            "anonymous": false,
            "inputs": [
                {
                    "indexed": false,
                    "internalType": "uint256",
                    "name": "id",
                    "type": "uint256"
                },
                {
                    "indexed": false,
                    "internalType": "bool",
                    "name": "outcome",
                    "type": "bool"
                }
            ],
            "name": "PredictionResolved",
            "type": "event"
        },
        {
            "inputs": [],
            "name": "admin",
            "outputs": [
                {
                    "internalType": "address",
                    "name": "",
                    "type": "address"
                }
            ],
            "stateMutability": "view",
            "type": "function"
        },
        {
            "inputs": [
                {
                    "internalType": "uint256",
                    "name": "_id",
                    "type": "uint256"
                },
                {
                    "internalType": "bool",
                    "name": "_betOnYes",
                    "type": "bool"
                }
            ],
            "name": "betPrediction",
            "outputs": [],
            "stateMutability": "payable",
            "type": "function"
        },
        {
            "inputs": [
                {
                    "internalType": "uint256",
                    "name": "_id",
                    "type": "uint256"
                }
            ],
            "name": "claimReward",
            "outputs": [],
            "stateMutability": "nonpayable",
            "type": "function"
        },
        {
            "inputs": [
                {
                    "internalType": "string",
                    "name": "_description",
                    "type": "string"
                },
                {
                    "internalType": "uint256",
                    "name": "_duration",
                    "type": "uint256"
                }
            ],
            "name": "createPrediction",
            "outputs": [],
            "stateMutability": "nonpayable",
            "type": "function"
        },
        {
            "inputs": [],
            "name": "owner",
            "outputs": [
                {
                    "internalType": "address",
                    "name": "",
                    "type": "address"
                }
            ],
            "stateMutability": "view",
            "type": "function"
        },
        {
            "inputs": [],
            "name": "predictionCount",
            "outputs": [
                {
                    "internalType": "uint256",
                    "name": "",
                    "type": "uint256"
                }
            ],
            "stateMutability": "view",
            "type": "function"
        },
        {
            "inputs": [
                {
                    "internalType": "uint256",
                    "name": "",
                    "type": "uint256"
                }
            ],
            "name": "predictions",
            "outputs": [
                {
                    "internalType": "uint256",
                    "name": "id",
                    "type": "uint256"
                },
                {
                    "internalType": "string",
                    "name": "description",
                    "type": "string"
                },
                {
                    "internalType": "uint256",
                    "name": "endTime",
                    "type": "uint256"
                },
                {
                    "internalType": "uint256",
                    "name": "totalYesBets",
                    "type": "uint256"
                },
                {
                    "internalType": "uint256",
                    "name": "totalNoBets",
                    "type": "uint256"
                },
                {
                    "internalType": "bool",
                    "name": "isResolved",
                    "type": "bool"
                },
                {
                    "internalType": "bool",
                    "name": "outcome",
                    "type": "bool"
                }
            ],
            "stateMutability": "view",
            "type": "function"
        },
        {
            "inputs": [],
            "name": "renounceOwnership",
            "outputs": [],
            "stateMutability": "nonpayable",
            "type": "function"
        },
        {
            "inputs": [
                {
                    "internalType": "uint256",
                    "name": "_id",
                    "type": "uint256"
                },
                {
                    "internalType": "bool",
                    "name": "_outcome",
                    "type": "bool"
                }
            ],
            "name": "resolvePrediction",
            "outputs": [],
            "stateMutability": "nonpayable",
            "type": "function"
        },
        {
            "inputs": [
                {
                    "internalType": "address",
                    "name": "newOwner",
                    "type": "address"
                }
            ],
            "name": "transferOwnership",
            "outputs": [],
            "stateMutability": "nonpayable",
            "type": "function"
        }
    ],
    "bytecode": "608060405234801561000f575f80fd5b50338061003557604051631e4fbdf760e01b81525f600482015260240160405180910390fd5b61003e81610044565b50610093565b5f80546001600160a01b038381166001600160a01b0319831681178455604051919092169283917f8be0079c531659141344cd1fd0a4f28419497f9722a3daafe3b4186f6b6457e09190a35050565b610d0e806100a05f395ff3fe60806040526004361061008e575f3560e01c80638e0596a2116100575780638e0596a2146101455780639576d36614610168578063ae169a5014610187578063f2fde38b146101a6578063f851a440146101c5575f80fd5b80624fbbb0146100925780631cb38907146100cd578063715018a6146100e257806376f34501146100f65780638da5cb5b14610115575b5f80fd5b34801561009d575f80fd5b506100b16100ac366004610931565b6101e4565b6040516100c4979695949392919061098b565b60405180910390f35b6100e06100db3660046109d1565b6102ab565b005b3480156100ed575f80fd5b506100e0610497565b348015610101575f80fd5b506100e06101103660046109d1565b6104aa565b348015610120575f80fd5b505f546001600160a01b03165b6040516001600160a01b0390911681526020016100c4565b348015610150575f80fd5b5061015a60025481565b6040519081526020016100c4565b348015610173575f80fd5b506100e0610182366004610a17565b6105cc565b348015610192575f80fd5b506100e06101a1366004610931565b610712565b3480156101b1575f80fd5b506100e06101c0366004610ac6565b610879565b3480156101d0575f80fd5b5060015461012d906001600160a01b031681565b60036020525f90815260409020805460018201805491929161020590610af3565b80601f016020809104026020016040519081016040528092919081815260200182805461023190610af3565b801561027c5780601f106102535761010080835404028352916020019161027c565b820191905f5260205f20905b81548152906001019060200180831161025f57829003601f168201915b505050506002830154600384015460048501546007909501549394919390925060ff8082169161010090041687565b5f828152600360205260409020600781015460ff16156103125760405162461bcd60e51b815260206004820152601f60248201527f546869732070726564696374696f6e20616c726561647920636c6f7365642e0060448201526064015b60405180910390fd5b806002015442106103655760405162461bcd60e51b815260206004820152601f60248201527f546869732070726564696374696f6e20616c726561647920636c6f7365642e006044820152606401610309565b5f34116103c45760405162461bcd60e51b815260206004820152602760248201527f42657420616d6f756e742073686f756c6420626520677265617465722074686160448201526637103d32b9379760c91b6064820152608401610309565b811561040f57335f908152600582016020526040812080543492906103ea908490610b3f565b9250508190555034816003015f8282546104049190610b3f565b9091555061044f9050565b335f9081526006820160205260408120805434929061042f908490610b3f565b9250508190555034816004015f8282546104499190610b3f565b90915550505b6040805184815234602082015283151581830152905133917fb1bd10cf5ea9540f12b9b182707734fd82deacc56830e2bd316133deb372bff4919081900360600190a2505050565b61049f6108b6565b6104a85f6108e2565b565b6104b26108b6565b5f82815260036020526040902060028101544210156105135760405162461bcd60e51b815260206004820152601e60248201527f50726564696374696f6e20706572696f64206973206e6f74206f7665722e00006044820152606401610309565b600781015460ff16156105685760405162461bcd60e51b815260206004820152601c60248201527f50726564696374696f6e20616c7265616479207265736f6c7665642e000000006044820152606401610309565b6007810180548315156101000261ffff199091161760011790556040517fa9d962ae3fe0d2c416ffe3dd757819699b5662be6ed8b67ed6644d5f232cac6c906105bf90859085909182521515602082015260400190565b60405180910390a1505050565b6105d46108b6565b5f811161062d5760405162461bcd60e51b815260206004820152602160248201527f4475726174696f6e2073686f756c642062652067726561746572207468616e206044820152600360fc1b6064820152608401610309565b5f82511161067d5760405162461bcd60e51b815260206004820152601f60248201527f4465736372697074696f6e2073686f756c64206e6f7420626520656d707479006044820152606401610309565b60028054905f61068c83610b58565b90915550506002545f818152600360205260409020908155600181016106b28482610bbe565b506106bd8242610b3f565b60028083018290555f60038401819055600484015560078301805461ffff19169055546040517f259c48cf151ba2e96755462b690d31372c37d0eee3779b078f1f7992e3b38ae7926105bf9291879190610c7a565b5f818152600360205260409020600781015460ff166107735760405162461bcd60e51b815260206004820152601f60248201527f50726564696374696f6e206973206e6f74207265736f6c766564207965742e006044820152606401610309565b60078101545f90610100900460ff16156107c8576003820154600483015461079c908290610b3f565b335f9081526005850160205260409020546107b79190610ca2565b6107c19190610cb9565b9050610804565b600482015460038301546107dc9082610b3f565b335f9081526006850160205260409020546107f79190610ca2565b6108019190610cb9565b90505b5f81116108495760405162461bcd60e51b81526020600482015260136024820152722737903932bbb0b932103a379031b630b4b69760691b6044820152606401610309565b604051339082156108fc029083905f818181858888f19350505050158015610873573d5f803e3d5ffd5b50505050565b6108816108b6565b6001600160a01b0381166108aa57604051631e4fbdf760e01b81525f6004820152602401610309565b6108b3816108e2565b50565b5f546001600160a01b031633146104a85760405163118cdaa760e01b8152336004820152602401610309565b5f80546001600160a01b038381166001600160a01b0319831681178455604051919092169283917f8be0079c531659141344cd1fd0a4f28419497f9722a3daafe3b4186f6b6457e09190a35050565b5f60208284031215610941575f80fd5b5035919050565b5f81518084525f5b8181101561096c57602081850181015186830182015201610950565b505f602082860101526020601f19601f83011685010191505092915050565b87815260e060208201525f6109a360e0830189610948565b60408301979097525060608101949094526080840192909252151560a0830152151560c09091015292915050565b5f80604083850312156109e2575f80fd5b82359150602083013580151581146109f8575f80fd5b809150509250929050565b634e487b7160e01b5f52604160045260245ffd5b5f8060408385031215610a28575f80fd5b823567ffffffffffffffff80821115610a3f575f80fd5b818501915085601f830112610a52575f80fd5b813581811115610a6457610a64610a03565b604051601f8201601f19908116603f01168101908382118183101715610a8c57610a8c610a03565b81604052828152886020848701011115610aa4575f80fd5b826020860160208301375f602093820184015298969091013596505050505050565b5f60208284031215610ad6575f80fd5b81356001600160a01b0381168114610aec575f80fd5b9392505050565b600181811c90821680610b0757607f821691505b602082108103610b2557634e487b7160e01b5f52602260045260245ffd5b50919050565b634e487b7160e01b5f52601160045260245ffd5b80820180821115610b5257610b52610b2b565b92915050565b5f60018201610b6957610b69610b2b565b5060010190565b601f821115610bb9575f81815260208120601f850160051c81016020861015610b965750805b601f850160051c820191505b81811015610bb557828155600101610ba2565b5050505b505050565b815167ffffffffffffffff811115610bd857610bd8610a03565b610bec81610be68454610af3565b84610b70565b602080601f831160018114610c1f575f8415610c085750858301515b5f19600386901b1c1916600185901b178555610bb5565b5f85815260208120601f198616915b82811015610c4d57888601518255948401946001909101908401610c2e565b5085821015610c6a57878501515f19600388901b60f8161c191681555b5050505050600190811b01905550565b838152606060208201525f610c926060830185610948565b9050826040830152949350505050565b8082028115828204841417610b5257610b52610b2b565b5f82610cd357634e487b7160e01b5f52601260045260245ffd5b50049056fea26469706673582212209b3e0a9cd8b19e0eec23671bb69c657d764e353278f3538a6abffe6b380345a364736f6c63430008140033",
    "sourcePath": "c:/Users/mertt/OneDrive/Masaüstü/Projects/Prediction Market Platform/src/contracts/Bet.sol",
    "compiler": {
        "name": "solc",
        "version": "0.8.20+commit.a1b79de6"
    },
    "functionHashes": {
        "admin()": "f851a440",
        "betPrediction(uint256,bool)": "1cb38907",
        "claimReward(uint256)": "ae169a50",
        "createPrediction(string,uint256)": "9576d366",
        "owner()": "8da5cb5b",
        "predictionCount()": "8e0596a2",
        "predictions(uint256)": "004fbbb0",
        "renounceOwnership()": "715018a6",
        "resolvePrediction(uint256,bool)": "76f34501",
        "transferOwnership(address)": "f2fde38b"
    },
    "gasEstimates": {
        "creation": {
            "codeDepositCost": "668400",
            "executionCost": "26562",
            "totalCost": "694962"
        },
        "external": {
            "admin()": "2424",
            "betPrediction(uint256,bool)": "infinite",
            "claimReward(uint256)": "infinite",
            "createPrediction(string,uint256)": "infinite",
            "owner()": "2407",
            "predictionCount()": "2294",
            "predictions(uint256)": "infinite",
            "renounceOwnership()": "infinite",
            "resolvePrediction(uint256,bool)": "32471",
            "transferOwnership(address)": "28360"
        }
    }
}