{
  "_format": "hh-sol-artifact-1",
  "contractName": "Bet",
  "sourceName": "contracts/Bet.sol",
  "abi": [
    {
      "inputs": [
        {
          "internalType": "address",
          "name": "owner",
          "type": "address"
        }
      ],
      "name": "OwnableInvalidOwner",
      "type": "error"
    },
    {
      "inputs": [
        {
          "internalType": "address",
          "name": "account",
          "type": "address"
        }
      ],
      "name": "OwnableUnauthorizedAccount",
      "type": "error"
    },
    {
      "anonymous": false,
      "inputs": [
        {
          "indexed": false,
          "internalType": "uint256",
          "name": "id",
          "type": "uint256"
        },
        {
          "indexed": true,
          "internalType": "address",
          "name": "user",
          "type": "address"
        },
        {
          "indexed": false,
          "internalType": "uint256",
          "name": "amount",
          "type": "uint256"
        },
        {
          "indexed": false,
          "internalType": "bool",
          "name": "betOnYes",
          "type": "bool"
        }
      ],
      "name": "BetPlaced",
      "type": "event"
    },
    {
      "anonymous": false,
      "inputs": [
        {
          "indexed": true,
          "internalType": "address",
          "name": "previousOwner",
          "type": "address"
        },
        {
          "indexed": true,
          "internalType": "address",
          "name": "newOwner",
          "type": "address"
        }
      ],
      "name": "OwnershipTransferred",
      "type": "event"
    },
    {
      "anonymous": false,
      "inputs": [
        {
          "indexed": false,
          "internalType": "uint256",
          "name": "id",
          "type": "uint256"
        },
        {
          "indexed": false,
          "internalType": "string",
          "name": "description",
          "type": "string"
        },
        {
          "indexed": false,
          "internalType": "uint256",
          "name": "endTime",
          "type": "uint256"
        }
      ],
      "name": "PredictionCreated",
      "type": "event"
    },
    {
      "anonymous": false,
      "inputs": [
        {
          "indexed": false,
          "internalType": "uint256",
          "name": "id",
          "type": "uint256"
        },
        {
          "indexed": false,
          "internalType": "bool",
          "name": "outcome",
          "type": "bool"
        }
      ],
      "name": "PredictionResolved",
      "type": "event"
    },
    {
      "inputs": [],
      "name": "admin",
      "outputs": [
        {
          "internalType": "address",
          "name": "",
          "type": "address"
        }
      ],
      "stateMutability": "view",
      "type": "function"
    },
    {
      "inputs": [
        {
          "internalType": "uint256",
          "name": "_id",
          "type": "uint256"
        },
        {
          "internalType": "bool",
          "name": "_betOnYes",
          "type": "bool"
        }
      ],
      "name": "betPrediction",
      "outputs": [],
      "stateMutability": "payable",
      "type": "function"
    },
    {
      "inputs": [
        {
          "internalType": "uint256",
          "name": "_id",
          "type": "uint256"
        }
      ],
      "name": "claimReward",
      "outputs": [],
      "stateMutability": "nonpayable",
      "type": "function"
    },
    {
      "inputs": [
        {
          "internalType": "string",
          "name": "_description",
          "type": "string"
        },
        {
          "internalType": "uint256",
          "name": "_duration",
          "type": "uint256"
        }
      ],
      "name": "createPrediction",
      "outputs": [],
      "stateMutability": "nonpayable",
      "type": "function"
    },
    {
      "inputs": [],
      "name": "owner",
      "outputs": [
        {
          "internalType": "address",
          "name": "",
          "type": "address"
        }
      ],
      "stateMutability": "view",
      "type": "function"
    },
    {
      "inputs": [],
      "name": "predictionCount",
      "outputs": [
        {
          "internalType": "uint256",
          "name": "",
          "type": "uint256"
        }
      ],
      "stateMutability": "view",
      "type": "function"
    },
    {
      "inputs": [
        {
          "internalType": "uint256",
          "name": "",
          "type": "uint256"
        }
      ],
      "name": "predictions",
      "outputs": [
        {
          "internalType": "uint256",
          "name": "id",
          "type": "uint256"
        },
        {
          "internalType": "string",
          "name": "description",
          "type": "string"
        },
        {
          "internalType": "uint256",
          "name": "endTime",
          "type": "uint256"
        },
        {
          "internalType": "uint256",
          "name": "totalYesBets",
          "type": "uint256"
        },
        {
          "internalType": "uint256",
          "name": "totalNoBets",
          "type": "uint256"
        },
        {
          "internalType": "bool",
          "name": "isResolved",
          "type": "bool"
        },
        {
          "internalType": "bool",
          "name": "outcome",
          "type": "bool"
        }
      ],
      "stateMutability": "view",
      "type": "function"
    },
    {
      "inputs": [],
      "name": "renounceOwnership",
      "outputs": [],
      "stateMutability": "nonpayable",
      "type": "function"
    },
    {
      "inputs": [
        {
          "internalType": "uint256",
          "name": "_id",
          "type": "uint256"
        },
        {
          "internalType": "bool",
          "name": "_outcome",
          "type": "bool"
        }
      ],
      "name": "resolvePrediction",
      "outputs": [],
      "stateMutability": "nonpayable",
      "type": "function"
    },
    {
      "inputs": [
        {
          "internalType": "address",
          "name": "newOwner",
          "type": "address"
        }
      ],
      "name": "transferOwnership",
      "outputs": [],
      "stateMutability": "nonpayable",
      "type": "function"
    }
  ],
  "bytecode": "0x60806040523480156200001157600080fd5b5033600073ffffffffffffffffffffffffffffffffffffffff168173ffffffffffffffffffffffffffffffffffffffff1603620000885760006040517f1e4fbdf70000000000000000000000000000000000000000000000000000000081526004016200007f9190620001a9565b60405180910390fd5b6200009981620000a060201b60201c565b50620001c6565b60008060009054906101000a900473ffffffffffffffffffffffffffffffffffffffff169050816000806101000a81548173ffffffffffffffffffffffffffffffffffffffff021916908373ffffffffffffffffffffffffffffffffffffffff1602179055508173ffffffffffffffffffffffffffffffffffffffff168173ffffffffffffffffffffffffffffffffffffffff167f8be0079c531659141344cd1fd0a4f28419497f9722a3daafe3b4186f6b6457e060405160405180910390a35050565b600073ffffffffffffffffffffffffffffffffffffffff82169050919050565b6000620001918262000164565b9050919050565b620001a38162000184565b82525050565b6000602082019050620001c0600083018462000198565b92915050565b61195c80620001d66000396000f3fe6080604052600436106100905760003560e01c80638e0596a2116100595780638e0596a21461015f5780639576d3661461018a578063ae169a50146101b3578063f2fde38b146101dc578063f851a4401461020557610090565b80624fbbb0146100955780631cb38907146100d8578063715018a6146100f457806376f345011461010b5780638da5cb5b14610134575b600080fd5b3480156100a157600080fd5b506100bc60048036038101906100b79190610c87565b610230565b6040516100cf9796959493929190610d6e565b60405180910390f35b6100f260048036038101906100ed9190610e10565b610314565b005b34801561010057600080fd5b5061010961054f565b005b34801561011757600080fd5b50610132600480360381019061012d9190610e10565b610563565b005b34801561014057600080fd5b50610149610692565b6040516101569190610e91565b60405180910390f35b34801561016b57600080fd5b506101746106bb565b6040516101819190610eac565b60405180910390f35b34801561019657600080fd5b506101b160048036038101906101ac9190610ffc565b6106c1565b005b3480156101bf57600080fd5b506101da60048036038101906101d59190610c87565b610846565b005b3480156101e857600080fd5b5061020360048036038101906101fe9190611084565b610a3e565b005b34801561021157600080fd5b5061021a610ac4565b6040516102279190610e91565b60405180910390f35b6003602052806000526040600020600091509050806000015490806001018054610259906110e0565b80601f0160208091040260200160405190810160405280929190818152602001828054610285906110e0565b80156102d25780601f106102a7576101008083540402835291602001916102d2565b820191906000526020600020905b8154815290600101906020018083116102b557829003601f168201915b5050505050908060020154908060030154908060040154908060070160009054906101000a900460ff16908060070160019054906101000a900460ff16905087565b60006003600084815260200190815260200160002090508060070160009054906101000a900460ff161561037d576040517f08c379a00000000000000000000000000000000000000000000000000000000081526004016103749061115d565b60405180910390fd5b806002015442106103c3576040517f08c379a00000000000000000000000000000000000000000000000000000000081526004016103ba9061115d565b60405180910390fd5b60003411610406576040517f08c379a00000000000000000000000000000000000000000000000000000000081526004016103fd906111ef565b60405180910390fd5b811561048457348160050160003373ffffffffffffffffffffffffffffffffffffffff1673ffffffffffffffffffffffffffffffffffffffff168152602001908152602001600020600082825461045d919061123e565b9250508190555034816003016000828254610478919061123e565b925050819055506104f8565b348160060160003373ffffffffffffffffffffffffffffffffffffffff1673ffffffffffffffffffffffffffffffffffffffff16815260200190815260200160002060008282546104d5919061123e565b92505081905550348160040160008282546104f0919061123e565b925050819055505b3373ffffffffffffffffffffffffffffffffffffffff167fb1bd10cf5ea9540f12b9b182707734fd82deacc56830e2bd316133deb372bff484348560405161054293929190611272565b60405180910390a2505050565b610557610aea565b6105616000610b71565b565b61056b610aea565b600060036000848152602001908152602001600020905080600201544210156105c9576040517f08c379a00000000000000000000000000000000000000000000000000000000081526004016105c0906112f5565b60405180910390fd5b8060070160009054906101000a900460ff161561061b576040517f08c379a000000000000000000000000000000000000000000000000000000000815260040161061290611361565b60405180910390fd5b60018160070160006101000a81548160ff021916908315150217905550818160070160016101000a81548160ff0219169083151502179055507fa9d962ae3fe0d2c416ffe3dd757819699b5662be6ed8b67ed6644d5f232cac6c8383604051610685929190611381565b60405180910390a1505050565b60008060009054906101000a900473ffffffffffffffffffffffffffffffffffffffff16905090565b60025481565b6106c9610aea565b6000811161070c576040517f08c379a00000000000000000000000000000000000000000000000000000000081526004016107039061141c565b60405180910390fd5b6000825111610750576040517f08c379a000000000000000000000000000000000000000000000000000000000815260040161074790611488565b60405180910390fd5b60026000815480929190610763906114a8565b91905055506000600360006002548152602001908152602001600020905060025481600001819055508281600101908161079d919061169c565b5081426107aa919061123e565b8160020181905550600081600301819055506000816004018190555060008160070160006101000a81548160ff02191690831515021790555060008160070160016101000a81548160ff0219169083151502179055507f259c48cf151ba2e96755462b690d31372c37d0eee3779b078f1f7992e3b38ae76002548483600201546040516108399392919061176e565b60405180910390a1505050565b60006003600083815260200190815260200160002090508060070160009054906101000a900460ff166108ae576040517f08c379a00000000000000000000000000000000000000000000000000000000081526004016108a5906117f8565b60405180910390fd5b60008160070160019054906101000a900460ff161561093d578160030154826003015483600401546108e0919061123e565b8360050160003373ffffffffffffffffffffffffffffffffffffffff1673ffffffffffffffffffffffffffffffffffffffff1681526020019081526020016000205461092c9190611818565b6109369190611889565b90506109af565b816004015482600301548360040154610956919061123e565b8360060160003373ffffffffffffffffffffffffffffffffffffffff1673ffffffffffffffffffffffffffffffffffffffff168152602001908152602001600020546109a29190611818565b6109ac9190611889565b90505b600081116109f2576040517f08c379a00000000000000000000000000000000000000000000000000000000081526004016109e990611906565b60405180910390fd5b3373ffffffffffffffffffffffffffffffffffffffff166108fc829081150290604051600060405180830381858888f19350505050158015610a38573d6000803e3d6000fd5b50505050565b610a46610aea565b600073ffffffffffffffffffffffffffffffffffffffff168173ffffffffffffffffffffffffffffffffffffffff1603610ab85760006040517f1e4fbdf7000000000000000000000000000000000000000000000000000000008152600401610aaf9190610e91565b60405180910390fd5b610ac181610b71565b50565b600160009054906101000a900473ffffffffffffffffffffffffffffffffffffffff1681565b610af2610c35565b73ffffffffffffffffffffffffffffffffffffffff16610b10610692565b73ffffffffffffffffffffffffffffffffffffffff1614610b6f57610b33610c35565b6040517f118cdaa7000000000000000000000000000000000000000000000000000000008152600401610b669190610e91565b60405180910390fd5b565b60008060009054906101000a900473ffffffffffffffffffffffffffffffffffffffff169050816000806101000a81548173ffffffffffffffffffffffffffffffffffffffff021916908373ffffffffffffffffffffffffffffffffffffffff1602179055508173ffffffffffffffffffffffffffffffffffffffff168173ffffffffffffffffffffffffffffffffffffffff167f8be0079c531659141344cd1fd0a4f28419497f9722a3daafe3b4186f6b6457e060405160405180910390a35050565b600033905090565b6000604051905090565b600080fd5b600080fd5b6000819050919050565b610c6481610c51565b8114610c6f57600080fd5b50565b600081359050610c8181610c5b565b92915050565b600060208284031215610c9d57610c9c610c47565b5b6000610cab84828501610c72565b91505092915050565b610cbd81610c51565b82525050565b600081519050919050565b600082825260208201905092915050565b60005b83811015610cfd578082015181840152602081019050610ce2565b60008484015250505050565b6000601f19601f8301169050919050565b6000610d2582610cc3565b610d2f8185610cce565b9350610d3f818560208601610cdf565b610d4881610d09565b840191505092915050565b60008115159050919050565b610d6881610d53565b82525050565b600060e082019050610d83600083018a610cb4565b8181036020830152610d958189610d1a565b9050610da46040830188610cb4565b610db16060830187610cb4565b610dbe6080830186610cb4565b610dcb60a0830185610d5f565b610dd860c0830184610d5f565b98975050505050505050565b610ded81610d53565b8114610df857600080fd5b50565b600081359050610e0a81610de4565b92915050565b60008060408385031215610e2757610e26610c47565b5b6000610e3585828601610c72565b9250506020610e4685828601610dfb565b9150509250929050565b600073ffffffffffffffffffffffffffffffffffffffff82169050919050565b6000610e7b82610e50565b9050919050565b610e8b81610e70565b82525050565b6000602082019050610ea66000830184610e82565b92915050565b6000602082019050610ec16000830184610cb4565b92915050565b600080fd5b600080fd5b7f4e487b7100000000000000000000000000000000000000000000000000000000600052604160045260246000fd5b610f0982610d09565b810181811067ffffffffffffffff82111715610f2857610f27610ed1565b5b80604052505050565b6000610f3b610c3d565b9050610f478282610f00565b919050565b600067ffffffffffffffff821115610f6757610f66610ed1565b5b610f7082610d09565b9050602081019050919050565b82818337600083830152505050565b6000610f9f610f9a84610f4c565b610f31565b905082815260208101848484011115610fbb57610fba610ecc565b5b610fc6848285610f7d565b509392505050565b600082601f830112610fe357610fe2610ec7565b5b8135610ff3848260208601610f8c565b91505092915050565b6000806040838503121561101357611012610c47565b5b600083013567ffffffffffffffff81111561103157611030610c4c565b5b61103d85828601610fce565b925050602061104e85828601610c72565b9150509250929050565b61106181610e70565b811461106c57600080fd5b50565b60008135905061107e81611058565b92915050565b60006020828403121561109a57611099610c47565b5b60006110a88482850161106f565b91505092915050565b7f4e487b7100000000000000000000000000000000000000000000000000000000600052602260045260246000fd5b600060028204905060018216806110f857607f821691505b60208210810361110b5761110a6110b1565b5b50919050565b7f546869732070726564696374696f6e20616c726561647920636c6f7365642e00600082015250565b6000611147601f83610cce565b915061115282611111565b602082019050919050565b600060208201905081810360008301526111768161113a565b9050919050565b7f42657420616d6f756e742073686f756c6420626520677265617465722074686160008201527f6e207a65726f2e00000000000000000000000000000000000000000000000000602082015250565b60006111d9602783610cce565b91506111e48261117d565b604082019050919050565b60006020820190508181036000830152611208816111cc565b9050919050565b7f4e487b7100000000000000000000000000000000000000000000000000000000600052601160045260246000fd5b600061124982610c51565b915061125483610c51565b925082820190508082111561126c5761126b61120f565b5b92915050565b60006060820190506112876000830186610cb4565b6112946020830185610cb4565b6112a16040830184610d5f565b949350505050565b7f50726564696374696f6e20706572696f64206973206e6f74206f7665722e0000600082015250565b60006112df601e83610cce565b91506112ea826112a9565b602082019050919050565b6000602082019050818103600083015261130e816112d2565b9050919050565b7f50726564696374696f6e20616c7265616479207265736f6c7665642e00000000600082015250565b600061134b601c83610cce565b915061135682611315565b602082019050919050565b6000602082019050818103600083015261137a8161133e565b9050919050565b60006040820190506113966000830185610cb4565b6113a36020830184610d5f565b9392505050565b7f4475726174696f6e2073686f756c642062652067726561746572207468616e2060008201527f3000000000000000000000000000000000000000000000000000000000000000602082015250565b6000611406602183610cce565b9150611411826113aa565b604082019050919050565b60006020820190508181036000830152611435816113f9565b9050919050565b7f4465736372697074696f6e2073686f756c64206e6f7420626520656d70747900600082015250565b6000611472601f83610cce565b915061147d8261143c565b602082019050919050565b600060208201905081810360008301526114a181611465565b9050919050565b60006114b382610c51565b91507fffffffffffffffffffffffffffffffffffffffffffffffffffffffffffffffff82036114e5576114e461120f565b5b600182019050919050565b60008190508160005260206000209050919050565b60006020601f8301049050919050565b600082821b905092915050565b6000600883026115527fffffffffffffffffffffffffffffffffffffffffffffffffffffffffffffffff82611515565b61155c8683611515565b95508019841693508086168417925050509392505050565b6000819050919050565b600061159961159461158f84610c51565b611574565b610c51565b9050919050565b6000819050919050565b6115b38361157e565b6115c76115bf826115a0565b848454611522565b825550505050565b600090565b6115dc6115cf565b6115e78184846115aa565b505050565b5b8181101561160b576116006000826115d4565b6001810190506115ed565b5050565b601f82111561165057611621816114f0565b61162a84611505565b81016020851015611639578190505b61164d61164585611505565b8301826115ec565b50505b505050565b600082821c905092915050565b600061167360001984600802611655565b1980831691505092915050565b600061168c8383611662565b9150826002028217905092915050565b6116a582610cc3565b67ffffffffffffffff8111156116be576116bd610ed1565b5b6116c882546110e0565b6116d382828561160f565b600060209050601f83116001811461170657600084156116f4578287015190505b6116fe8582611680565b865550611766565b601f198416611714866114f0565b60005b8281101561173c57848901518255600182019150602085019450602081019050611717565b868310156117595784890151611755601f891682611662565b8355505b6001600288020188555050505b505050505050565b60006060820190506117836000830186610cb4565b81810360208301526117958185610d1a565b90506117a46040830184610cb4565b949350505050565b7f50726564696374696f6e206973206e6f74207265736f6c766564207965742e00600082015250565b60006117e2601f83610cce565b91506117ed826117ac565b602082019050919050565b60006020820190508181036000830152611811816117d5565b9050919050565b600061182382610c51565b915061182e83610c51565b925082820261183c81610c51565b915082820484148315176118535761185261120f565b5b5092915050565b7f4e487b7100000000000000000000000000000000000000000000000000000000600052601260045260246000fd5b600061189482610c51565b915061189f83610c51565b9250826118af576118ae61185a565b5b828204905092915050565b7f4e6f2072657761726420746f20636c61696d2e00000000000000000000000000600082015250565b60006118f0601383610cce565b91506118fb826118ba565b602082019050919050565b6000602082019050818103600083015261191f816118e3565b905091905056fea264697066735822122079490d8f6950e1de75f49bcb5abb2f910ed17a8283111e510762b6365298d36e64736f6c63430008140033",
  "linkReferences": {},
  "deployedLinkReferences": {}
}